{
  "_format": "hh-sol-artifact-1",
  "contractName": "LandSale",
  "sourceName": "contracts/LandSale.sol",
  "abi": [
    {
      "anonymous": false,
      "inputs": [
        {
          "indexed": false,
          "internalType": "address",
          "name": "buyer",
          "type": "address"
        }
      ],
      "name": "BuyerAccepted",
      "type": "event"
    },
    {
      "anonymous": false,
      "inputs": [
        {
          "indexed": false,
          "internalType": "bool",
          "name": "approved",
          "type": "bool"
        }
      ],
      "name": "GovernmentApproved",
      "type": "event"
    },
    {
      "anonymous": false,
      "inputs": [
        {
          "indexed": false,
          "internalType": "bool",
          "name": "verified",
          "type": "bool"
        }
      ],
      "name": "LandVerified",
      "type": "event"
    },
    {
      "anonymous": false,
      "inputs": [],
      "name": "SaleCancelled",
      "type": "event"
    },
    {
      "anonymous": false,
      "inputs": [
        {
          "indexed": false,
          "internalType": "address",
          "name": "buyer",
          "type": "address"
        }
      ],
      "name": "SaleCompleted",
      "type": "event"
    },
    {
      "anonymous": false,
      "inputs": [
        {
          "indexed": false,
          "internalType": "uint256",
          "name": "landId",
          "type": "uint256"
        },
        {
          "indexed": false,
          "internalType": "address",
          "name": "seller",
          "type": "address"
        },
        {
          "indexed": false,
          "internalType": "uint256",
          "name": "price",
          "type": "uint256"
        }
      ],
      "name": "SaleInitiated",
      "type": "event"
    },
    {
      "inputs": [],
      "name": "acceptOffer",
      "outputs": [],
      "stateMutability": "payable",
      "type": "function"
    },
    {
      "inputs": [
        {
          "internalType": "bool",
          "name": "approved",
          "type": "bool"
        }
      ],
      "name": "approveTransfer",
      "outputs": [],
      "stateMutability": "nonpayable",
      "type": "function"
    },
    {
      "inputs": [],
      "name": "buyer",
      "outputs": [
        {
          "internalType": "address payable",
          "name": "",
          "type": "address"
        }
      ],
      "stateMutability": "view",
      "type": "function"
    },
    {
      "inputs": [],
      "name": "cancelSale",
      "outputs": [],
      "stateMutability": "nonpayable",
      "type": "function"
    },
    {
      "inputs": [],
      "name": "depositedAmount",
      "outputs": [
        {
          "internalType": "uint256",
          "name": "",
          "type": "uint256"
        }
      ],
      "stateMutability": "view",
      "type": "function"
    },
    {
      "inputs": [
        {
          "internalType": "address",
          "name": "governmentAddress",
          "type": "address"
        }
      ],
      "name": "designateGovernmentOfficial",
      "outputs": [],
      "stateMutability": "nonpayable",
      "type": "function"
    },
    {
      "inputs": [
        {
          "internalType": "address",
          "name": "surveyorAddress",
          "type": "address"
        }
      ],
      "name": "designateSurveyor",
      "outputs": [],
      "stateMutability": "nonpayable",
      "type": "function"
    },
    {
      "inputs": [],
      "name": "finalizeSale",
      "outputs": [],
      "stateMutability": "nonpayable",
      "type": "function"
    },
    {
      "inputs": [],
      "name": "governmentApproved",
      "outputs": [
        {
          "internalType": "bool",
          "name": "",
          "type": "bool"
        }
      ],
      "stateMutability": "view",
      "type": "function"
    },
    {
      "inputs": [
        {
          "internalType": "uint256",
          "name": "_landId",
          "type": "uint256"
        },
        {
          "internalType": "uint256",
          "name": "_price",
          "type": "uint256"
        }
      ],
      "name": "initiateSale",
      "outputs": [],
      "stateMutability": "nonpayable",
      "type": "function"
    },
    {
      "inputs": [
        {
          "internalType": "address",
          "name": "",
          "type": "address"
        }
      ],
      "name": "isGovernmentOfficial",
      "outputs": [
        {
          "internalType": "bool",
          "name": "",
          "type": "bool"
        }
      ],
      "stateMutability": "view",
      "type": "function"
    },
    {
      "inputs": [
        {
          "internalType": "address",
          "name": "",
          "type": "address"
        }
      ],
      "name": "isOwner",
      "outputs": [
        {
          "internalType": "bool",
          "name": "",
          "type": "bool"
        }
      ],
      "stateMutability": "view",
      "type": "function"
    },
    {
      "inputs": [
        {
          "internalType": "address",
          "name": "",
          "type": "address"
        }
      ],
      "name": "isSurveyor",
      "outputs": [
        {
          "internalType": "bool",
          "name": "",
          "type": "bool"
        }
      ],
      "stateMutability": "view",
      "type": "function"
    },
    {
      "inputs": [],
      "name": "landId",
      "outputs": [
        {
          "internalType": "uint256",
          "name": "",
          "type": "uint256"
        }
      ],
      "stateMutability": "view",
      "type": "function"
    },
    {
      "inputs": [],
      "name": "landRegistry",
      "outputs": [
        {
          "internalType": "contract LandRegistry",
          "name": "",
          "type": "address"
        }
      ],
      "stateMutability": "view",
      "type": "function"
    },
    {
      "inputs": [],
      "name": "landVerified",
      "outputs": [
        {
          "internalType": "bool",
          "name": "",
          "type": "bool"
        }
      ],
      "stateMutability": "view",
      "type": "function"
    },
    {
      "inputs": [],
      "name": "paymentToken",
      "outputs": [
        {
          "internalType": "contract IERC20",
          "name": "",
          "type": "address"
        }
      ],
      "stateMutability": "view",
      "type": "function"
    },
    {
      "inputs": [],
      "name": "price",
      "outputs": [
        {
          "internalType": "uint256",
          "name": "",
          "type": "uint256"
        }
      ],
      "stateMutability": "view",
      "type": "function"
    },
    {
      "inputs": [],
      "name": "seller",
      "outputs": [
        {
          "internalType": "address payable",
          "name": "",
          "type": "address"
        }
      ],
      "stateMutability": "view",
      "type": "function"
    },
    {
      "inputs": [],
      "name": "state",
      "outputs": [
        {
          "internalType": "enum LandSale.SaleState",
          "name": "",
          "type": "uint8"
        }
      ],
      "stateMutability": "view",
      "type": "function"
    },
    {
      "inputs": [
        {
          "internalType": "bool",
          "name": "verified",
          "type": "bool"
        }
      ],
      "name": "verifyLand",
      "outputs": [],
      "stateMutability": "nonpayable",
      "type": "function"
    }
  ],
  "bytecode": "0x608060405234801561001057600080fd5b50611abd806100206000396000f3fe60806040526004361061012a5760003560e01c806391e09b90116100ab578063c42f0a881161006f578063c42f0a88146103be578063d93e1e69146103e7578063e2a3798c14610424578063e7e104901461044f578063eb62df6114610466578063ee688eea146104705761012a565b806391e09b90146102e9578063a035b1fe14610312578063b66c80b91461033d578063bd4dc02414610368578063c19d93fb146103935761012a565b80633013ce29116100f25780633013ce291461022857806358a687ec1461025357806363b9ea651461026a5780637150d8ae1461029357806387559974146102be5761012a565b806308551a531461012f5780631d01364c1461015a57806323928a77146101855780632e3f84ec146101ae5780632f54bf6e146101eb575b600080fd5b34801561013b57600080fd5b50610144610499565b60405161015191906112c7565b60405180910390f35b34801561016657600080fd5b5061016f6104bf565b60405161017c91906112fb565b60405180910390f35b34801561019157600080fd5b506101ac60048036038101906101a79190611359565b6104c5565b005b3480156101ba57600080fd5b506101d560048036038101906101d09190611359565b6105ac565b6040516101e291906113a1565b60405180910390f35b3480156101f757600080fd5b50610212600480360381019061020d9190611359565b6105cc565b60405161021f91906113a1565b60405180910390f35b34801561023457600080fd5b5061023d6105ec565b60405161024a919061141b565b60405180910390f35b34801561025f57600080fd5b50610268610612565b005b34801561027657600080fd5b50610291600480360381019061028c9190611462565b610859565b005b34801561029f57600080fd5b506102a86109ad565b6040516102b591906112c7565b60405180910390f35b3480156102ca57600080fd5b506102d36109d3565b6040516102e091906113a1565b60405180910390f35b3480156102f557600080fd5b50610310600480360381019061030b9190611359565b6109e6565b005b34801561031e57600080fd5b50610327610acd565b60405161033491906112fb565b60405180910390f35b34801561034957600080fd5b50610352610ad3565b60405161035f91906113a1565b60405180910390f35b34801561037457600080fd5b5061037d610ae6565b60405161038a91906114b0565b60405180910390f35b34801561039f57600080fd5b506103a8610b0c565b6040516103b59190611542565b60405180910390f35b3480156103ca57600080fd5b506103e560048036038101906103e09190611589565b610b1d565b005b3480156103f357600080fd5b5061040e60048036038101906104099190611359565b610cfc565b60405161041b91906113a1565b60405180910390f35b34801561043057600080fd5b50610439610d1c565b60405161044691906112fb565b60405180910390f35b34801561045b57600080fd5b50610464610d22565b005b61046e610f00565b005b34801561047c57600080fd5b5061049760048036038101906104929190611462565b611132565b005b600260009054906101000a900473ffffffffffffffffffffffffffffffffffffffff1681565b60065481565b600860003373ffffffffffffffffffffffffffffffffffffffff1673ffffffffffffffffffffffffffffffffffffffff16815260200190815260200160002060009054906101000a900460ff16610551576040517f08c379a000000000000000000000000000000000000000000000000000000000815260040161054890611626565b60405180910390fd5b6001600960008373ffffffffffffffffffffffffffffffffffffffff1673ffffffffffffffffffffffffffffffffffffffff16815260200190815260200160002060006101000a81548160ff02191690831515021790555050565b60096020528060005260406000206000915054906101000a900460ff1681565b60086020528060005260406000206000915054906101000a900460ff1681565b600560009054906101000a900473ffffffffffffffffffffffffffffffffffffffff1681565b60016003811115610626576106256114cb565b5b60008054906101000a900460ff166003811115610646576106456114cb565b5b14801561065f5750600a60009054906101000a900460ff165b80156106775750600a60019054906101000a900460ff165b6106b6576040517f08c379a00000000000000000000000000000000000000000000000000000000081526004016106ad90611692565b60405180910390fd5b600260009054906101000a900473ffffffffffffffffffffffffffffffffffffffff1673ffffffffffffffffffffffffffffffffffffffff166108fc6006549081150290604051600060405180830381858888f19350505050158015610720573d6000803e3d6000fd5b50600a60029054906101000a900473ffffffffffffffffffffffffffffffffffffffff1673ffffffffffffffffffffffffffffffffffffffff166329507f73600154600460009054906101000a900473ffffffffffffffffffffffffffffffffffffffff166040518363ffffffff1660e01b81526004016107a29291906116d3565b600060405180830381600087803b1580156107bc57600080fd5b505af11580156107d0573d6000803e3d6000fd5b5050505060026000806101000a81548160ff021916908360038111156107f9576107f86114cb565b5b02179055507fdbb8fb6208865a764e0c574051a48dfb2374a43bf1883594e169ee48015cd233600460009054906101000a900473ffffffffffffffffffffffffffffffffffffffff1660405161084f91906116fc565b60405180910390a1565b600760003373ffffffffffffffffffffffffffffffffffffffff1673ffffffffffffffffffffffffffffffffffffffff16815260200190815260200160002060009054906101000a900460ff166108e5576040517f08c379a00000000000000000000000000000000000000000000000000000000081526004016108dc90611763565b60405180910390fd5b600160038111156108f9576108f86114cb565b5b60008054906101000a900460ff166003811115610919576109186114cb565b5b14610959576040517f08c379a0000000000000000000000000000000000000000000000000000000008152600401610950906117cf565b60405180910390fd5b80600a60006101000a81548160ff0219169083151502179055507f12d18f5ace67ebc10703226f22330efbbb2e9ec26c0313bcd1ed06bda73ebeab816040516109a291906113a1565b60405180910390a150565b600460009054906101000a900473ffffffffffffffffffffffffffffffffffffffff1681565b600a60019054906101000a900460ff1681565b600860003373ffffffffffffffffffffffffffffffffffffffff1673ffffffffffffffffffffffffffffffffffffffff16815260200190815260200160002060009054906101000a900460ff16610a72576040517f08c379a0000000000000000000000000000000000000000000000000000000008152600401610a6990611626565b60405180910390fd5b6001600760008373ffffffffffffffffffffffffffffffffffffffff1673ffffffffffffffffffffffffffffffffffffffff16815260200190815260200160002060006101000a81548160ff02191690831515021790555050565b60035481565b600a60009054906101000a900460ff1681565b600a60029054906101000a900473ffffffffffffffffffffffffffffffffffffffff1681565b60008054906101000a900460ff1681565b60006003811115610b3157610b306114cb565b5b60008054906101000a900460ff166003811115610b5157610b506114cb565b5b14610b91576040517f08c379a0000000000000000000000000000000000000000000000000000000008152600401610b889061183b565b60405180910390fd5b8160018190555033600260006101000a81548173ffffffffffffffffffffffffffffffffffffffff021916908373ffffffffffffffffffffffffffffffffffffffff1602179055508060038190555060008060006101000a81548160ff02191690836003811115610c0557610c046114cb565b5b0217905550600a60029054906101000a900473ffffffffffffffffffffffffffffffffffffffff1673ffffffffffffffffffffffffffffffffffffffff1663bb0165b1600154306040518363ffffffff1660e01b8152600401610c6992919061186a565b600060405180830381600087803b158015610c8357600080fd5b505af1158015610c97573d6000803e3d6000fd5b505050507f8c588d07beaca707a91422b3b2af046aeeea679dc0560ee518510fd686dfa72582600260009054906101000a900473ffffffffffffffffffffffffffffffffffffffff1683604051610cf093929190611893565b60405180910390a15050565b60076020528060005260406000206000915054906101000a900460ff1681565b60015481565b600860003373ffffffffffffffffffffffffffffffffffffffff1673ffffffffffffffffffffffffffffffffffffffff16815260200190815260200160002060009054906101000a900460ff16610dae576040517f08c379a0000000000000000000000000000000000000000000000000000000008152600401610da590611626565b60405180910390fd5b60006003811115610dc257610dc16114cb565b5b60008054906101000a900460ff166003811115610de257610de16114cb565b5b1480610e1f575060016003811115610dfd57610dfc6114cb565b5b60008054906101000a900460ff166003811115610e1d57610e1c6114cb565b5b145b610e5e576040517f08c379a0000000000000000000000000000000000000000000000000000000008152600401610e5590611916565b60405180910390fd5b6000600460006101000a81548173ffffffffffffffffffffffffffffffffffffffff021916908373ffffffffffffffffffffffffffffffffffffffff160217905550600060068190555060036000806101000a81548160ff02191690836003811115610ecd57610ecc6114cb565b5b02179055507fe0e133045a83e38ee79d367a84f6cbf75018e4457eccd0336c5b596d620d126d60405160405180910390a1565b60006003811115610f1457610f136114cb565b5b60008054906101000a900460ff166003811115610f3457610f336114cb565b5b14610f74576040517f08c379a0000000000000000000000000000000000000000000000000000000008152600401610f6b90611982565b60405180910390fd5b60035434101580156110265750600560009054906101000a900473ffffffffffffffffffffffffffffffffffffffff1673ffffffffffffffffffffffffffffffffffffffff166323b872dd33306003546040518463ffffffff1660e01b8152600401610fe2939291906119a2565b6020604051808303816000875af1158015611001573d6000803e3d6000fd5b505050506040513d601f19601f8201168201806040525081019061102591906119ee565b5b611065576040517f08c379a000000000000000000000000000000000000000000000000000000000815260040161105c90611a67565b60405180910390fd5b33600460006101000a81548173ffffffffffffffffffffffffffffffffffffffff021916908373ffffffffffffffffffffffffffffffffffffffff1602179055503460068190555060016000806101000a81548160ff021916908360038111156110d2576110d16114cb565b5b02179055507f5f3a7bf7d0d0920ead7a7881b6e97df7c48a86c5cc14706a00cefc033bc8a059600460009054906101000a900473ffffffffffffffffffffffffffffffffffffffff1660405161112891906116fc565b60405180910390a1565b600960003373ffffffffffffffffffffffffffffffffffffffff1673ffffffffffffffffffffffffffffffffffffffff16815260200190815260200160002060009054906101000a900460ff166111be576040517f08c379a00000000000000000000000000000000000000000000000000000000081526004016111b590611626565b60405180910390fd5b600160038111156111d2576111d16114cb565b5b60008054906101000a900460ff1660038111156111f2576111f16114cb565b5b14611232576040517f08c379a0000000000000000000000000000000000000000000000000000000008152600401611229906117cf565b60405180910390fd5b80600a60016101000a81548160ff0219169083151502179055507fb5ce29e1d051880aa821e9e7fa9029a9e9021a420e01edffe65b9720c08cfb788160405161127b91906113a1565b60405180910390a150565b600073ffffffffffffffffffffffffffffffffffffffff82169050919050565b60006112b182611286565b9050919050565b6112c1816112a6565b82525050565b60006020820190506112dc60008301846112b8565b92915050565b6000819050919050565b6112f5816112e2565b82525050565b600060208201905061131060008301846112ec565b92915050565b600080fd5b600061132682611286565b9050919050565b6113368161131b565b811461134157600080fd5b50565b6000813590506113538161132d565b92915050565b60006020828403121561136f5761136e611316565b5b600061137d84828501611344565b91505092915050565b60008115159050919050565b61139b81611386565b82525050565b60006020820190506113b66000830184611392565b92915050565b6000819050919050565b60006113e16113dc6113d784611286565b6113bc565b611286565b9050919050565b60006113f3826113c6565b9050919050565b6000611405826113e8565b9050919050565b611415816113fa565b82525050565b6000602082019050611430600083018461140c565b92915050565b61143f81611386565b811461144a57600080fd5b50565b60008135905061145c81611436565b92915050565b60006020828403121561147857611477611316565b5b60006114868482850161144d565b91505092915050565b600061149a826113e8565b9050919050565b6114aa8161148f565b82525050565b60006020820190506114c560008301846114a1565b92915050565b7f4e487b7100000000000000000000000000000000000000000000000000000000600052602160045260246000fd5b6004811061150b5761150a6114cb565b5b50565b600081905061151c826114fa565b919050565b600061152c8261150e565b9050919050565b61153c81611521565b82525050565b60006020820190506115576000830184611533565b92915050565b611566816112e2565b811461157157600080fd5b50565b6000813590506115838161155d565b92915050565b600080604083850312156115a05761159f611316565b5b60006115ae85828601611574565b92505060206115bf85828601611574565b9150509250929050565b600082825260208201905092915050565b7f556e617574686f72697a6564206163636573732028676f7665726e6d656e7429600082015250565b60006116106020836115c9565b915061161b826115da565b602082019050919050565b6000602082019050818103600083015261163f81611603565b9050919050565b7f53616c65206e6f7420726561647920666f7220636f6d706c6574696f6e000000600082015250565b600061167c601d836115c9565b915061168782611646565b602082019050919050565b600060208201905081810360008301526116ab8161166f565b9050919050565b60006116bd826113e8565b9050919050565b6116cd816116b2565b82525050565b60006040820190506116e860008301856112ec565b6116f560208301846116c4565b9392505050565b600060208201905061171160008301846116c4565b92915050565b7f556e617574686f72697a65642061636365737320287375727665796f72290000600082015250565b600061174d601e836115c9565b915061175882611717565b602082019050919050565b6000602082019050818103600083015261177c81611740565b9050919050565b7f53616c65206e6f7420696e2070726f6772657373000000000000000000000000600082015250565b60006117b96014836115c9565b91506117c482611783565b602082019050919050565b600060208201905081810360008301526117e8816117ac565b9050919050565b7f53616c6520616c726561647920696e6974696174656400000000000000000000600082015250565b60006118256016836115c9565b9150611830826117ef565b602082019050919050565b6000602082019050818103600083015261185481611818565b9050919050565b6118648161131b565b82525050565b600060408201905061187f60008301856112ec565b61188c602083018461185b565b9392505050565b60006060820190506118a860008301866112ec565b6118b560208301856116c4565b6118c260408301846112ec565b949350505050565b7f53616c6520616c726561647920636f6d706c657465642f63616e63656c6c6564600082015250565b60006119006020836115c9565b915061190b826118ca565b602082019050919050565b6000602082019050818103600083015261192f816118f3565b9050919050565b7f53616c65206e6f74206c69737465640000000000000000000000000000000000600082015250565b600061196c600f836115c9565b915061197782611936565b602082019050919050565b6000602082019050818103600083015261199b8161195f565b9050919050565b60006060820190506119b7600083018661185b565b6119c4602083018561185b565b6119d160408301846112ec565b949350505050565b6000815190506119e881611436565b92915050565b600060208284031215611a0457611a03611316565b5b6000611a12848285016119d9565b91505092915050565b7f496e73756666696369656e742066756e64730000000000000000000000000000600082015250565b6000611a516012836115c9565b9150611a5c82611a1b565b602082019050919050565b60006020820190508181036000830152611a8081611a44565b905091905056fea2646970667358221220572ed53b9e7f4dd661388e03f2e685f84e4bca44d72becc11ccde7f5a75c828864736f6c63430008170033",
  "linkReferences": {},
  "deployedLinkReferences": {}
}