{
  "_format": "hh-sol-artifact-1",
  "contractName": "LandRegistry",
  "sourceName": "contracts/LandRegistry.sol",
  "abi": [
    {
      "inputs": [],
      "name": "getAllLands",
      "outputs": [
        {
          "components": [
            {
              "internalType": "address",
              "name": "owner",
              "type": "address"
            },
            {
              "internalType": "uint256",
              "name": "acreage",
              "type": "uint256"
            },
            {
              "internalType": "string",
              "name": "location",
              "type": "string"
            },
            {
              "internalType": "string",
              "name": "zoning",
              "type": "string"
            },
            {
              "internalType": "bool",
              "name": "existingContract",
              "type": "bool"
            }
          ],
          "internalType": "struct LandRegistry.LandParcel[]",
          "name": "",
          "type": "tuple[]"
        }
      ],
      "stateMutability": "view",
      "type": "function"
    },
    {
      "inputs": [
        {
          "internalType": "uint256",
          "name": "landId",
          "type": "uint256"
        }
      ],
      "name": "getLandDetails",
      "outputs": [
        {
          "components": [
            {
              "internalType": "address",
              "name": "owner",
              "type": "address"
            },
            {
              "internalType": "uint256",
              "name": "acreage",
              "type": "uint256"
            },
            {
              "internalType": "string",
              "name": "location",
              "type": "string"
            },
            {
              "internalType": "string",
              "name": "zoning",
              "type": "string"
            },
            {
              "internalType": "bool",
              "name": "existingContract",
              "type": "bool"
            }
          ],
          "internalType": "struct LandRegistry.LandParcel",
          "name": "",
          "type": "tuple"
        }
      ],
      "stateMutability": "view",
      "type": "function"
    },
    {
      "inputs": [
        {
          "internalType": "uint256",
          "name": "",
          "type": "uint256"
        }
      ],
      "name": "landIdToContractAddress",
      "outputs": [
        {
          "internalType": "address",
          "name": "",
          "type": "address"
        }
      ],
      "stateMutability": "view",
      "type": "function"
    },
    {
      "inputs": [
        {
          "internalType": "uint256",
          "name": "",
          "type": "uint256"
        }
      ],
      "name": "landParcels",
      "outputs": [
        {
          "internalType": "address",
          "name": "owner",
          "type": "address"
        },
        {
          "internalType": "uint256",
          "name": "acreage",
          "type": "uint256"
        },
        {
          "internalType": "string",
          "name": "location",
          "type": "string"
        },
        {
          "internalType": "string",
          "name": "zoning",
          "type": "string"
        },
        {
          "internalType": "bool",
          "name": "existingContract",
          "type": "bool"
        }
      ],
      "stateMutability": "view",
      "type": "function"
    },
    {
      "inputs": [
        {
          "internalType": "uint256",
          "name": "landId",
          "type": "uint256"
        },
        {
          "internalType": "address",
          "name": "owner",
          "type": "address"
        },
        {
          "internalType": "uint256",
          "name": "acreage",
          "type": "uint256"
        },
        {
          "internalType": "string",
          "name": "location",
          "type": "string"
        },
        {
          "internalType": "string",
          "name": "zoning",
          "type": "string"
        },
        {
          "internalType": "bool",
          "name": "existingContract",
          "type": "bool"
        }
      ],
      "name": "registerLand",
      "outputs": [],
      "stateMutability": "nonpayable",
      "type": "function"
    },
    {
      "inputs": [
        {
          "internalType": "uint256",
          "name": "landId",
          "type": "uint256"
        },
        {
          "internalType": "address",
          "name": "contractAddress",
          "type": "address"
        }
      ],
      "name": "setContractAddress",
      "outputs": [],
      "stateMutability": "nonpayable",
      "type": "function"
    },
    {
      "inputs": [
        {
          "internalType": "uint256",
          "name": "landId",
          "type": "uint256"
        },
        {
          "internalType": "address",
          "name": "newOwner",
          "type": "address"
        }
      ],
      "name": "transferOwnership",
      "outputs": [],
      "stateMutability": "nonpayable",
      "type": "function"
    }
  ],
  "bytecode": "0x608060405234801561001057600080fd5b50611568806100206000396000f3fe608060405234801561001057600080fd5b506004361061007d5760003560e01c8063b7b6e5431161005b578063b7b6e543146100ee578063bb0165b11461010c578063cf62d9fa14610128578063fe0cb7dc146101585761007d565b806320e7c6d41461008257806329507f73146100b65780634449b286146100d2575b600080fd5b61009c60048036038101906100979190610a95565b610188565b6040516100ad959493929190610bbd565b60405180910390f35b6100d060048036038101906100cb9190610c4a565b6102fb565b005b6100ec60048036038101906100e79190610deb565b6103b6565b005b6100f66104af565b6040516101039190611066565b60405180910390f35b61012660048036038101906101219190610c4a565b610710565b005b610142600480360381019061013d9190610a95565b610766565b60405161014f9190611088565b60405180910390f35b610172600480360381019061016d9190610a95565b610799565b60405161017f9190611120565b60405180910390f35b60006020528060005260406000206000915090508060000160009054906101000a900473ffffffffffffffffffffffffffffffffffffffff16908060010154908060020180546101d790611171565b80601f016020809104026020016040519081016040528092919081815260200182805461020390611171565b80156102505780601f1061022557610100808354040283529160200191610250565b820191906000526020600020905b81548152906001019060200180831161023357829003601f168201915b50505050509080600301805461026590611171565b80601f016020809104026020016040519081016040528092919081815260200182805461029190611171565b80156102de5780601f106102b3576101008083540402835291602001916102de565b820191906000526020600020905b8154815290600101906020018083116102c157829003601f168201915b5050505050908060040160009054906101000a900460ff16905085565b60008083815260200190815260200160002060040160009054906101000a900460ff161561035e576040517f08c379a0000000000000000000000000000000000000000000000000000000008152600401610355906111ee565b60405180910390fd5b8060008084815260200190815260200160002060000160006101000a81548173ffffffffffffffffffffffffffffffffffffffff021916908373ffffffffffffffffffffffffffffffffffffffff1602179055505050565b6040518060a001604052808673ffffffffffffffffffffffffffffffffffffffff16815260200185815260200184815260200183815260200182151581525060008088815260200190815260200160002060008201518160000160006101000a81548173ffffffffffffffffffffffffffffffffffffffff021916908373ffffffffffffffffffffffffffffffffffffffff16021790555060208201518160010155604082015181600201908161046d91906113ba565b50606082015181600301908161048391906113ba565b5060808201518160040160006101000a81548160ff021916908315150217905550905050505050505050565b606060006104bb610964565b905060008167ffffffffffffffff8111156104d9576104d8610c94565b5b60405190808252806020026020018201604052801561051257816020015b6104ff610a04565b8152602001906001900390816104f75790505b50905060005b82811015610707576000808281526020019081526020016000206040518060a00160405290816000820160009054906101000a900473ffffffffffffffffffffffffffffffffffffffff1673ffffffffffffffffffffffffffffffffffffffff1673ffffffffffffffffffffffffffffffffffffffff168152602001600182015481526020016002820180546105ad90611171565b80601f01602080910402602001604051908101604052809291908181526020018280546105d990611171565b80156106265780601f106105fb57610100808354040283529160200191610626565b820191906000526020600020905b81548152906001019060200180831161060957829003601f168201915b5050505050815260200160038201805461063f90611171565b80601f016020809104026020016040519081016040528092919081815260200182805461066b90611171565b80156106b85780601f1061068d576101008083540402835291602001916106b8565b820191906000526020600020905b81548152906001019060200180831161069b57829003601f168201915b505050505081526020016004820160009054906101000a900460ff1615151515815250508282815181106106ef576106ee61148c565b5b60200260200101819052508080600101915050610518565b50809250505090565b806001600084815260200190815260200160002060006101000a81548173ffffffffffffffffffffffffffffffffffffffff021916908373ffffffffffffffffffffffffffffffffffffffff1602179055505050565b60016020528060005260406000206000915054906101000a900473ffffffffffffffffffffffffffffffffffffffff1681565b6107a1610a04565b6000808381526020019081526020016000206040518060a00160405290816000820160009054906101000a900473ffffffffffffffffffffffffffffffffffffffff1673ffffffffffffffffffffffffffffffffffffffff1673ffffffffffffffffffffffffffffffffffffffff1681526020016001820154815260200160028201805461082e90611171565b80601f016020809104026020016040519081016040528092919081815260200182805461085a90611171565b80156108a75780601f1061087c576101008083540402835291602001916108a7565b820191906000526020600020905b81548152906001019060200180831161088a57829003601f168201915b505050505081526020016003820180546108c090611171565b80601f01602080910402602001604051908101604052809291908181526020018280546108ec90611171565b80156109395780601f1061090e57610100808354040283529160200191610939565b820191906000526020600020905b81548152906001019060200180831161091c57829003601f168201915b505050505081526020016004820160009054906101000a900460ff1615151515815250509050919050565b6000806000905060005b600f8110156109fc57600073ffffffffffffffffffffffffffffffffffffffff1660008083815260200190815260200160002060000160009054906101000a900473ffffffffffffffffffffffffffffffffffffffff1673ffffffffffffffffffffffffffffffffffffffff16146109ef5781806109eb906114ea565b9250505b808060010191505061096e565b508091505090565b6040518060a00160405280600073ffffffffffffffffffffffffffffffffffffffff1681526020016000815260200160608152602001606081526020016000151581525090565b6000604051905090565b600080fd5b600080fd5b6000819050919050565b610a7281610a5f565b8114610a7d57600080fd5b50565b600081359050610a8f81610a69565b92915050565b600060208284031215610aab57610aaa610a55565b5b6000610ab984828501610a80565b91505092915050565b600073ffffffffffffffffffffffffffffffffffffffff82169050919050565b6000610aed82610ac2565b9050919050565b610afd81610ae2565b82525050565b610b0c81610a5f565b82525050565b600081519050919050565b600082825260208201905092915050565b60005b83811015610b4c578082015181840152602081019050610b31565b60008484015250505050565b6000601f19601f8301169050919050565b6000610b7482610b12565b610b7e8185610b1d565b9350610b8e818560208601610b2e565b610b9781610b58565b840191505092915050565b60008115159050919050565b610bb781610ba2565b82525050565b600060a082019050610bd26000830188610af4565b610bdf6020830187610b03565b8181036040830152610bf18186610b69565b90508181036060830152610c058185610b69565b9050610c146080830184610bae565b9695505050505050565b610c2781610ae2565b8114610c3257600080fd5b50565b600081359050610c4481610c1e565b92915050565b60008060408385031215610c6157610c60610a55565b5b6000610c6f85828601610a80565b9250506020610c8085828601610c35565b9150509250929050565b600080fd5b600080fd5b7f4e487b7100000000000000000000000000000000000000000000000000000000600052604160045260246000fd5b610ccc82610b58565b810181811067ffffffffffffffff82111715610ceb57610cea610c94565b5b80604052505050565b6000610cfe610a4b565b9050610d0a8282610cc3565b919050565b600067ffffffffffffffff821115610d2a57610d29610c94565b5b610d3382610b58565b9050602081019050919050565b82818337600083830152505050565b6000610d62610d5d84610d0f565b610cf4565b905082815260208101848484011115610d7e57610d7d610c8f565b5b610d89848285610d40565b509392505050565b600082601f830112610da657610da5610c8a565b5b8135610db6848260208601610d4f565b91505092915050565b610dc881610ba2565b8114610dd357600080fd5b50565b600081359050610de581610dbf565b92915050565b60008060008060008060c08789031215610e0857610e07610a55565b5b6000610e1689828a01610a80565b9650506020610e2789828a01610c35565b9550506040610e3889828a01610a80565b945050606087013567ffffffffffffffff811115610e5957610e58610a5a565b5b610e6589828a01610d91565b935050608087013567ffffffffffffffff811115610e8657610e85610a5a565b5b610e9289828a01610d91565b92505060a0610ea389828a01610dd6565b9150509295509295509295565b600081519050919050565b600082825260208201905092915050565b6000819050602082019050919050565b610ee581610ae2565b82525050565b610ef481610a5f565b82525050565b600082825260208201905092915050565b6000610f1682610b12565b610f208185610efa565b9350610f30818560208601610b2e565b610f3981610b58565b840191505092915050565b610f4d81610ba2565b82525050565b600060a083016000830151610f6b6000860182610edc565b506020830151610f7e6020860182610eeb565b5060408301518482036040860152610f968282610f0b565b91505060608301518482036060860152610fb08282610f0b565b9150506080830151610fc56080860182610f44565b508091505092915050565b6000610fdc8383610f53565b905092915050565b6000602082019050919050565b6000610ffc82610eb0565b6110068185610ebb565b93508360208202850161101885610ecc565b8060005b8581101561105457848403895281516110358582610fd0565b945061104083610fe4565b925060208a0199505060018101905061101c565b50829750879550505050505092915050565b600060208201905081810360008301526110808184610ff1565b905092915050565b600060208201905061109d6000830184610af4565b92915050565b600060a0830160008301516110bb6000860182610edc565b5060208301516110ce6020860182610eeb565b50604083015184820360408601526110e68282610f0b565b915050606083015184820360608601526111008282610f0b565b91505060808301516111156080860182610f44565b508091505092915050565b6000602082019050818103600083015261113a81846110a3565b905092915050565b7f4e487b7100000000000000000000000000000000000000000000000000000000600052602260045260246000fd5b6000600282049050600182168061118957607f821691505b60208210810361119c5761119b611142565b5b50919050565b7f4578697374696e6720636f6e747261637420666f7220746865206c616e640000600082015250565b60006111d8601e83610b1d565b91506111e3826111a2565b602082019050919050565b60006020820190508181036000830152611207816111cb565b9050919050565b60008190508160005260206000209050919050565b60006020601f8301049050919050565b600082821b905092915050565b6000600883026112707fffffffffffffffffffffffffffffffffffffffffffffffffffffffffffffffff82611233565b61127a8683611233565b95508019841693508086168417925050509392505050565b6000819050919050565b60006112b76112b26112ad84610a5f565b611292565b610a5f565b9050919050565b6000819050919050565b6112d18361129c565b6112e56112dd826112be565b848454611240565b825550505050565b600090565b6112fa6112ed565b6113058184846112c8565b505050565b5b818110156113295761131e6000826112f2565b60018101905061130b565b5050565b601f82111561136e5761133f8161120e565b61134884611223565b81016020851015611357578190505b61136b61136385611223565b83018261130a565b50505b505050565b600082821c905092915050565b600061139160001984600802611373565b1980831691505092915050565b60006113aa8383611380565b9150826002028217905092915050565b6113c382610b12565b67ffffffffffffffff8111156113dc576113db610c94565b5b6113e68254611171565b6113f182828561132d565b600060209050601f8311600181146114245760008415611412578287015190505b61141c858261139e565b865550611484565b601f1984166114328661120e565b60005b8281101561145a57848901518255600182019150602085019450602081019050611435565b868310156114775784890151611473601f891682611380565b8355505b6001600288020188555050505b505050505050565b7f4e487b7100000000000000000000000000000000000000000000000000000000600052603260045260246000fd5b7f4e487b7100000000000000000000000000000000000000000000000000000000600052601160045260246000fd5b60006114f582610a5f565b91507fffffffffffffffffffffffffffffffffffffffffffffffffffffffffffffffff8203611527576115266114bb565b5b60018201905091905056fea2646970667358221220e3038c103d6ada91fbe5dab708f53dd717e2d5e1271407d1cdd7a1cb2b61250a64736f6c63430008170033",
  "linkReferences": {},
  "deployedLinkReferences": {}
}